{
  "_format": "hh-sol-artifact-1",
  "contractName": "ManagerFacet",
  "sourceName": "contracts/facets/ManagerFacet.sol",
  "abi": [
    {
      "anonymous": false,
      "inputs": [
        {
          "components": [
            {
              "internalType": "address",
              "name": "facetAddress",
              "type": "address"
            },
            {
              "internalType": "enum IDiamondCut.FacetCutAction",
              "name": "action",
              "type": "uint8"
            },
            {
              "internalType": "bytes4[]",
              "name": "functionSelectors",
              "type": "bytes4[]"
            }
          ],
          "indexed": false,
          "internalType": "struct IDiamondCut.FacetCut[]",
          "name": "_diamondCut",
          "type": "tuple[]"
        },
        {
          "components": [
            {
              "internalType": "address",
              "name": "owner",
              "type": "address"
            },
            {
              "internalType": "address",
              "name": "taxWallet",
              "type": "address"
            },
            {
              "internalType": "address",
              "name": "stakingFacet",
              "type": "address"
            },
            {
              "internalType": "address",
              "name": "v2router",
              "type": "address"
            },
            {
              "internalType": "bool",
              "name": "isFreeTier",
              "type": "bool"
            },
            {
              "internalType": "uint256",
              "name": "minLiq",
              "type": "uint256"
            },
            {
              "internalType": "uint256",
              "name": "supply",
              "type": "uint256"
            },
            {
              "internalType": "uint256",
              "name": "initTaxType",
              "type": "uint256"
            },
            {
              "internalType": "uint256",
              "name": "initInterval",
              "type": "uint256"
            },
            {
              "internalType": "uint256",
              "name": "countInterval",
              "type": "uint256"
            },
            {
              "internalType": "uint256",
              "name": "maxBuyTax",
              "type": "uint256"
            },
            {
              "internalType": "uint256",
              "name": "minBuyTax",
              "type": "uint256"
            },
            {
              "internalType": "uint256",
              "name": "maxSellTax",
              "type": "uint256"
            },
            {
              "internalType": "uint256",
              "name": "minSellTax",
              "type": "uint256"
            },
            {
              "internalType": "uint256",
              "name": "lpTax",
              "type": "uint256"
            },
            {
              "internalType": "uint256",
              "name": "maxWallet",
              "type": "uint256"
            },
            {
              "internalType": "uint256",
              "name": "maxTx",
              "type": "uint256"
            },
            {
              "internalType": "uint256",
              "name": "preventSwap",
              "type": "uint256"
            },
            {
              "internalType": "uint256",
              "name": "maxSwap",
              "type": "uint256"
            },
            {
              "internalType": "uint256",
              "name": "taxSwapThreshold",
              "type": "uint256"
            },
            {
              "internalType": "string",
              "name": "name",
              "type": "string"
            },
            {
              "internalType": "string",
              "name": "symbol",
              "type": "string"
            }
          ],
          "indexed": false,
          "internalType": "struct INewToken.InitParams",
          "name": "params",
          "type": "tuple"
        }
      ],
      "name": "LaunchedArgs",
      "type": "event"
    },
    {
      "anonymous": false,
      "inputs": [
        {
          "indexed": false,
          "internalType": "uint256",
          "name": "amount",
          "type": "uint256"
        }
      ],
      "name": "StakingMade",
      "type": "event"
    },
    {
      "anonymous": false,
      "inputs": [
        {
          "indexed": false,
          "internalType": "uint256",
          "name": "amount",
          "type": "uint256"
        }
      ],
      "name": "TaxMade",
      "type": "event"
    },
    {
      "anonymous": false,
      "inputs": [
        {
          "components": [
            {
              "internalType": "address",
              "name": "owner",
              "type": "address"
            },
            {
              "internalType": "address",
              "name": "token",
              "type": "address"
            },
            {
              "internalType": "bool",
              "name": "isFree",
              "type": "bool"
            },
            {
              "internalType": "bool",
              "name": "isEthPaid",
              "type": "bool"
            },
            {
              "internalType": "uint256",
              "name": "cost",
              "type": "uint256"
            },
            {
              "internalType": "string",
              "name": "name",
              "type": "string"
            },
            {
              "internalType": "string",
              "name": "symbol",
              "type": "string"
            },
            {
              "internalType": "uint256",
              "name": "supply",
              "type": "uint256"
            },
            {
              "internalType": "address",
              "name": "router",
              "type": "address"
            }
          ],
          "indexed": false,
          "internalType": "struct ManagerFacet.TokParams",
          "name": "params",
          "type": "tuple"
        }
      ],
      "name": "TokenLaunched",
      "type": "event"
    },
    {
      "anonymous": false,
      "inputs": [
        {
          "indexed": true,
          "internalType": "address",
          "name": "from",
          "type": "address"
        },
        {
          "indexed": true,
          "internalType": "address",
          "name": "to",
          "type": "address"
        },
        {
          "indexed": false,
          "internalType": "uint256",
          "name": "value",
          "type": "uint256"
        }
      ],
      "name": "Transfer",
      "type": "event"
    },
    {
      "inputs": [
        {
          "components": [
            {
              "internalType": "address",
              "name": "owner",
              "type": "address"
            },
            {
              "internalType": "address",
              "name": "taxWallet",
              "type": "address"
            },
            {
              "internalType": "address",
              "name": "stakingFacet",
              "type": "address"
            },
            {
              "internalType": "address",
              "name": "v2router",
              "type": "address"
            },
            {
              "internalType": "bool",
              "name": "isFreeTier",
              "type": "bool"
            },
            {
              "internalType": "uint256",
              "name": "minLiq",
              "type": "uint256"
            },
            {
              "internalType": "uint256",
              "name": "supply",
              "type": "uint256"
            },
            {
              "internalType": "uint256",
              "name": "initTaxType",
              "type": "uint256"
            },
            {
              "internalType": "uint256",
              "name": "initInterval",
              "type": "uint256"
            },
            {
              "internalType": "uint256",
              "name": "countInterval",
              "type": "uint256"
            },
            {
              "internalType": "uint256",
              "name": "maxBuyTax",
              "type": "uint256"
            },
            {
              "internalType": "uint256",
              "name": "minBuyTax",
              "type": "uint256"
            },
            {
              "internalType": "uint256",
              "name": "maxSellTax",
              "type": "uint256"
            },
            {
              "internalType": "uint256",
              "name": "minSellTax",
              "type": "uint256"
            },
            {
              "internalType": "uint256",
              "name": "lpTax",
              "type": "uint256"
            },
            {
              "internalType": "uint256",
              "name": "maxWallet",
              "type": "uint256"
            },
            {
              "internalType": "uint256",
              "name": "maxTx",
              "type": "uint256"
            },
            {
              "internalType": "uint256",
              "name": "preventSwap",
              "type": "uint256"
            },
            {
              "internalType": "uint256",
              "name": "maxSwap",
              "type": "uint256"
            },
            {
              "internalType": "uint256",
              "name": "taxSwapThreshold",
              "type": "uint256"
            },
            {
              "internalType": "string",
              "name": "name",
              "type": "string"
            },
            {
              "internalType": "string",
              "name": "symbol",
              "type": "string"
            }
          ],
          "internalType": "struct INewToken.InitParams",
          "name": "params",
          "type": "tuple"
        }
      ],
      "name": "launchTokenBridge",
      "outputs": [],
      "stateMutability": "nonpayable",
      "type": "function"
    },
    {
      "inputs": [
        {
          "components": [
            {
              "internalType": "address",
              "name": "owner",
              "type": "address"
            },
            {
              "internalType": "address",
              "name": "taxWallet",
              "type": "address"
            },
            {
              "internalType": "address",
              "name": "stakingFacet",
              "type": "address"
            },
            {
              "internalType": "address",
              "name": "v2router",
              "type": "address"
            },
            {
              "internalType": "bool",
              "name": "isFreeTier",
              "type": "bool"
            },
            {
              "internalType": "uint256",
              "name": "minLiq",
              "type": "uint256"
            },
            {
              "internalType": "uint256",
              "name": "supply",
              "type": "uint256"
            },
            {
              "internalType": "uint256",
              "name": "initTaxType",
              "type": "uint256"
            },
            {
              "internalType": "uint256",
              "name": "initInterval",
              "type": "uint256"
            },
            {
              "internalType": "uint256",
              "name": "countInterval",
              "type": "uint256"
            },
            {
              "internalType": "uint256",
              "name": "maxBuyTax",
              "type": "uint256"
            },
            {
              "internalType": "uint256",
              "name": "minBuyTax",
              "type": "uint256"
            },
            {
              "internalType": "uint256",
              "name": "maxSellTax",
              "type": "uint256"
            },
            {
              "internalType": "uint256",
              "name": "minSellTax",
              "type": "uint256"
            },
            {
              "internalType": "uint256",
              "name": "lpTax",
              "type": "uint256"
            },
            {
              "internalType": "uint256",
              "name": "maxWallet",
              "type": "uint256"
            },
            {
              "internalType": "uint256",
              "name": "maxTx",
              "type": "uint256"
            },
            {
              "internalType": "uint256",
              "name": "preventSwap",
              "type": "uint256"
            },
            {
              "internalType": "uint256",
              "name": "maxSwap",
              "type": "uint256"
            },
            {
              "internalType": "uint256",
              "name": "taxSwapThreshold",
              "type": "uint256"
            },
            {
              "internalType": "string",
              "name": "name",
              "type": "string"
            },
            {
              "internalType": "string",
              "name": "symbol",
              "type": "string"
            }
          ],
          "internalType": "struct INewToken.InitParams",
          "name": "params",
          "type": "tuple"
        }
      ],
      "name": "launchTokenDeployyyyer",
      "outputs": [],
      "stateMutability": "nonpayable",
      "type": "function"
    },
    {
      "inputs": [
        {
          "components": [
            {
              "internalType": "address",
              "name": "owner",
              "type": "address"
            },
            {
              "internalType": "address",
              "name": "taxWallet",
              "type": "address"
            },
            {
              "internalType": "address",
              "name": "stakingFacet",
              "type": "address"
            },
            {
              "internalType": "address",
              "name": "v2router",
              "type": "address"
            },
            {
              "internalType": "bool",
              "name": "isFreeTier",
              "type": "bool"
            },
            {
              "internalType": "uint256",
              "name": "minLiq",
              "type": "uint256"
            },
            {
              "internalType": "uint256",
              "name": "supply",
              "type": "uint256"
            },
            {
              "internalType": "uint256",
              "name": "initTaxType",
              "type": "uint256"
            },
            {
              "internalType": "uint256",
              "name": "initInterval",
              "type": "uint256"
            },
            {
              "internalType": "uint256",
              "name": "countInterval",
              "type": "uint256"
            },
            {
              "internalType": "uint256",
              "name": "maxBuyTax",
              "type": "uint256"
            },
            {
              "internalType": "uint256",
              "name": "minBuyTax",
              "type": "uint256"
            },
            {
              "internalType": "uint256",
              "name": "maxSellTax",
              "type": "uint256"
            },
            {
              "internalType": "uint256",
              "name": "minSellTax",
              "type": "uint256"
            },
            {
              "internalType": "uint256",
              "name": "lpTax",
              "type": "uint256"
            },
            {
              "internalType": "uint256",
              "name": "maxWallet",
              "type": "uint256"
            },
            {
              "internalType": "uint256",
              "name": "maxTx",
              "type": "uint256"
            },
            {
              "internalType": "uint256",
              "name": "preventSwap",
              "type": "uint256"
            },
            {
              "internalType": "uint256",
              "name": "maxSwap",
              "type": "uint256"
            },
            {
              "internalType": "uint256",
              "name": "taxSwapThreshold",
              "type": "uint256"
            },
            {
              "internalType": "string",
              "name": "name",
              "type": "string"
            },
            {
              "internalType": "string",
              "name": "symbol",
              "type": "string"
            }
          ],
          "internalType": "struct INewToken.InitParams",
          "name": "params",
          "type": "tuple"
        }
      ],
      "name": "launchTokenEth",
      "outputs": [],
      "stateMutability": "payable",
      "type": "function"
    },
    {
      "inputs": [
        {
          "components": [
            {
              "internalType": "address",
              "name": "owner",
              "type": "address"
            },
            {
              "internalType": "address",
              "name": "taxWallet",
              "type": "address"
            },
            {
              "internalType": "address",
              "name": "stakingFacet",
              "type": "address"
            },
            {
              "internalType": "address",
              "name": "v2router",
              "type": "address"
            },
            {
              "internalType": "bool",
              "name": "isFreeTier",
              "type": "bool"
            },
            {
              "internalType": "uint256",
              "name": "minLiq",
              "type": "uint256"
            },
            {
              "internalType": "uint256",
              "name": "supply",
              "type": "uint256"
            },
            {
              "internalType": "uint256",
              "name": "initTaxType",
              "type": "uint256"
            },
            {
              "internalType": "uint256",
              "name": "initInterval",
              "type": "uint256"
            },
            {
              "internalType": "uint256",
              "name": "countInterval",
              "type": "uint256"
            },
            {
              "internalType": "uint256",
              "name": "maxBuyTax",
              "type": "uint256"
            },
            {
              "internalType": "uint256",
              "name": "minBuyTax",
              "type": "uint256"
            },
            {
              "internalType": "uint256",
              "name": "maxSellTax",
              "type": "uint256"
            },
            {
              "internalType": "uint256",
              "name": "minSellTax",
              "type": "uint256"
            },
            {
              "internalType": "uint256",
              "name": "lpTax",
              "type": "uint256"
            },
            {
              "internalType": "uint256",
              "name": "maxWallet",
              "type": "uint256"
            },
            {
              "internalType": "uint256",
              "name": "maxTx",
              "type": "uint256"
            },
            {
              "internalType": "uint256",
              "name": "preventSwap",
              "type": "uint256"
            },
            {
              "internalType": "uint256",
              "name": "maxSwap",
              "type": "uint256"
            },
            {
              "internalType": "uint256",
              "name": "taxSwapThreshold",
              "type": "uint256"
            },
            {
              "internalType": "string",
              "name": "name",
              "type": "string"
            },
            {
              "internalType": "string",
              "name": "symbol",
              "type": "string"
            }
          ],
          "internalType": "struct INewToken.InitParams",
          "name": "params",
          "type": "tuple"
        }
      ],
      "name": "launchTokenFree",
      "outputs": [],
      "stateMutability": "nonpayable",
      "type": "function"
    }
  ],
  "bytecode": "0x608060405234801561001057600080fd5b50612b6a806100206000396000f3fe608060405260043610620000445760003560e01c806366a0c39414620000495780637ad4670514620000625780639c02504a1462000087578063d38bf89014620000ac575b600080fd5b620000606200005a366004620015da565b620000d1565b005b3480156200006f57600080fd5b506200006062000081366004620015da565b620002f6565b3480156200009457600080fd5b5062000060620000a6366004620015da565b620003c0565b348015620000b957600080fd5b5062000060620000cb366004620015da565b62000507565b6004543410156200010e5760405162461bcd60e51b81526020600482015260026024820152616d3160f01b60448201526064015b60405180910390fd5b6200011d816000600162000511565b601c54600090156200021357601c546004546064916200013d9162001794565b620001499190620017b4565b90507f3392b75a0721e4605be82daf22af3b927da9086deccc7dbb947b37bf895d3deb816040516200017d91815260200190565b60405180910390a16018546040516000916001600160a01b03169083908381818185875af1925050503d8060008114620001d4576040519150601f19603f3d011682016040523d82523d6000602084013e620001d9565b606091505b5050905080620002115760405162461bcd60e51b8152602060048201526002602482015261369960f11b604482015260640162000105565b505b6004547f2488b4123934dca0dca56f8f7005a71c0a52e2c9158fe31ac31869efe776d6eb9062000245908390620017d7565b60405190815260200160405180910390a16016546004546000916001600160a01b03169062000276908490620017d7565b604051600081818185875af1925050503d8060008114620002b4576040519150601f19603f3d011682016040523d82523d6000602084013e620002b9565b606091505b5050905080620002f15760405162461bcd60e51b81526020600482015260026024820152616d3360f01b604482015260640162000105565b505050565b620003048160008062000511565b6008546016546005546040516323b872dd60e01b81523360048201526001600160a01b03928316602482015260448101919091529116906323b872dd906064016020604051808303816000875af115801562000364573d6000803e3d6000fd5b505050506040513d601f19601f820116820180604052508101906200038a9190620017ed565b620003bd5760405162461bcd60e51b81526020600482015260026024820152616d3560f01b604482015260640162000105565b50565b600554336000908152601460205260409020541015620004085760405162461bcd60e51b81526020600482015260026024820152611b4d60f21b604482015260640162000105565b60055433600090815260146020526040812080549091906200042c908490620017d7565b90915550506005546200044290600290620017b4565b30600090815260146020526040812080549091906200046390849062001814565b9091555050600554309033907fddf252ad1be2c89b69c2b068fc378daa952ba7f163c4a11628f55a4df523b3ef906200049f90600290620017b4565b60405190815260200160405180910390a360055460009033907fddf252ad1be2c89b69c2b068fc378daa952ba7f163c4a11628f55a4df523b3ef90620004e890600290620017b4565b60405190815260200160405180910390a3620003bd8160008062000511565b620003bd81600160005b604080516003808252608082019092527fc8fcad8db84d3cc18b4c41d551ea0ee66dd599cde068d998e57d5e09332c131c9160009190602082015b604080516060808201835260008083526020830152918101919091528152602001906001900390816200054c57505060408051600b808252610180820190925291925060009190602082016101608036833701905050905063f2fde38b60e01b81600081518110620005c257620005c26200182a565b6001600160e01b0319909216602092830291909101909101528051638da5cb5b60e01b9082906001908110620005fc57620005fc6200182a565b6001600160e01b031990921660209283029190910190910152805163113b8e8760e21b90829060029081106200063657620006366200182a565b6001600160e01b0319909216602092830291909101909101528051634839c8b360e01b90829060039081106200067057620006706200182a565b6001600160e01b03199092166020928302919091019091015280516348c54b9d60e01b9082906004908110620006aa57620006aa6200182a565b6001600160e01b031990921660209283029190910190910152805163034368b560e21b9082906005908110620006e457620006e46200182a565b6001600160e01b0319909216602092830291909101909101528051635c89dfe160e01b90829060069081106200071e576200071e6200182a565b6001600160e01b03199092166020928302919091019091015280516305a2930760e11b90829060079081106200075857620007586200182a565b6001600160e01b031990921660209283029190910190910152805163af66394d60e01b90829060089081106200079257620007926200182a565b6001600160e01b0319909216602092830291909101909101528051631bbc0e1d60e31b9082906009908110620007cc57620007cc6200182a565b6001600160e01b03199092166020928302919091019091015280516320ffb26d60e01b908290600a9081106200080657620008066200182a565b6001600160e01b03199092166020928302919091018201526040805160608082018352638da5cb5b60e01b600090815287855292832054901c815291820190815260200182815250826000815181106200086457620008646200182a565b602090810291909101015260408051600580825260c0820190925260009181602001602082028036833701905050905063cdffacc660e01b81600081518110620008b257620008b26200182a565b6001600160e01b03199092166020928302919091019091015280516314bbdacb60e21b9082906001908110620008ec57620008ec6200182a565b6001600160e01b03199092166020928302919091019091015280516356fe50af60e11b90829060029081106200092657620009266200182a565b6001600160e01b0319909216602092830291909101909101528051637a0ed62760e01b90829060039081106200096057620009606200182a565b6001600160e01b03199092166020928302919091019091015280516301ffc9a760e01b90829060049081106200099a576200099a6200182a565b6001600160e01b03199092166020928302919091018201526040805160608082018352637a0ed62760e01b600090815288855292832054901c81529182019081526020018281525083600181518110620009f857620009f86200182a565b602090810291909101015260408051601080825261022082019092526000918160200160208202803683370190505090506306fdde0360e01b8160008151811062000a475762000a476200182a565b6001600160e01b03199092166020928302919091019091015280516395d89b4160e01b908290600190811062000a815762000a816200182a565b6001600160e01b031990921660209283029190910190910152805163313ce56760e01b908290600290811062000abb5762000abb6200182a565b6001600160e01b03199092166020928302919091019091015280516318160ddd60e01b908290600390811062000af55762000af56200182a565b6001600160e01b03199092166020928302919091019091015280516370a0823160e01b908290600490811062000b2f5762000b2f6200182a565b6001600160e01b03199092166020928302919091019091015280516323b872dd60e01b908290600590811062000b695762000b696200182a565b6001600160e01b031990921660209283029190910190910152805163a9059cbb60e01b908290600690811062000ba35762000ba36200182a565b6001600160e01b031990921660209283029190910190910152805163095ea7b360e01b908290600790811062000bdd5762000bdd6200182a565b6001600160e01b0319909216602092830291909101909101528051636eb1769f60e11b908290600890811062000c175762000c176200182a565b6001600160e01b03199092166020928302919091019091015280516366761b8b60e11b908290600990811062000c515762000c516200182a565b6001600160e01b03199092166020928302919091019091015280516378f8484b60e01b908290600a90811062000c8b5762000c8b6200182a565b6001600160e01b0319909216602092830291909101909101528051636dbe26ed60e11b908290600b90811062000cc55762000cc56200182a565b6001600160e01b03199092166020928302919091019091015280516306ef4e8960e21b908290600c90811062000cff5762000cff6200182a565b6001600160e01b031990921660209283029190910190910152805163087fc38b60e41b908290600d90811062000d395762000d396200182a565b6001600160e01b03199092166020928302919091019091015280516316acc14360e31b908290600e90811062000d735762000d736200182a565b6001600160e01b03199092166020928302919091019091015280516359ccab1b60e11b908290600f90811062000dad5762000dad6200182a565b6001600160e01b03199092166020928302919091018201526040805160608101909152601b546001600160a01b0316815290810160008152602001828152508460028151811062000e025762000e026200182a565b60209081029190910101528615156080890152338852600c5460a08901526019546001600160a01b031660408901526101608801516101408901511080159062000e525750602888610140015111155b62000e855760405162461bcd60e51b8152602060048201526002602482015261369b60f11b604482015260640162000105565b6006886101600151111562000ec25760405162461bcd60e51b81526020600482015260026024820152616d3760f01b604482015260640162000105565b876101a001518861018001511015801562000ee35750602888610180015111155b62000f165760405162461bcd60e51b81526020600482015260026024820152610da760f31b604482015260640162000105565b6006886101a00151111562000f535760405162461bcd60e51b81526020600482015260026024820152616d3960f01b604482015260640162000105565b60038860e00151111562000f905760405162461bcd60e51b815260206004820152600360248201526206d31360ec1b604482015260640162000105565b611c20886101000151111562000fcf5760405162461bcd60e51b81526020600482015260036024820152626d313160e81b604482015260640162000105565b606488610120015111156200100d5760405162461bcd60e51b815260206004820152600360248201526236989960e91b604482015260640162000105565b6000886101e001511180156200102957506064886101e0015111155b6200105d5760405162461bcd60e51b81526020600482015260036024820152626d313360e81b604482015260640162000105565b6000886102000151118015620010795750606488610200015111155b620010ad5760405162461bcd60e51b81526020600482015260036024820152621b4c4d60ea1b604482015260640162000105565b6032886101c001511115620010eb5760405162461bcd60e51b81526020600482015260036024820152626d313560e81b604482015260640162000105565b620f42408860c00151101580156200110e575066038d7ea4c680008860c0015111155b620011425760405162461bcd60e51b815260206004820152600360248201526236989b60e91b604482015260640162000105565b60328861022001511115620011805760405162461bcd60e51b81526020600482015260036024820152626d313760e81b604482015260640162000105565b60648860c00151620011939190620017b4565b88610240015110158015620011cd575060648860c001516002620011b8919062001794565b620011c49190620017b4565b88610240015111155b620012015760405162461bcd60e51b81526020600482015260036024820152620da62760eb1b604482015260640162000105565b620f42408860c00151620012169190620017b4565b886102600151101580156200124357506103e88860c001516200123a9190620017b4565b88610260015111155b620012775760405162461bcd60e51b81526020600482015260036024820152626d313960e81b604482015260640162000105565b604080516101208101825233808252600060208084018290528b1515848601528a1515606080860191909152608085018390526102808e015160a08601526102a08e015160c0808701919091528e015160e08601528d01516001600160a01b0316610100850152918152600990915291822080549192600a92620012fd90849062001814565b909155508890506200134e573360009081526009602052604081208054603292906200132b90849062001814565b90915550508615620013455760045460808201526200134e565b60055460808201525b6000858a6040516200136090620014bb565b6200136d929190620019e8565b604051809103906000f0801580156200138a573d6000803e3d6000fd5b506001600160a01b03811660208401526040519091507f05801121ffc1080c74d11ce5f437ed5f77b1014c00f7e1b8bb6cd899ad1f950490620013cf90849062001ae0565b60405180910390a17f3b4ed61465b58338e263b505549844f954f907fd99423bf3ab93abb762d2dda6868b6040516200140a929190620019e8565b60405180910390a16001600160a01b038116600090815260026020526040902080546001600160a01b03191633179055620014458162001451565b50505050505050505050565b6040516001600160a01b0382166024820152620003bd9060440160408051601f198184030181529190526020810180516001600160e01b031663161765e160e11b179052620003bd8160006a636f6e736f6c652e6c6f679050600080835160208501845afa505050565b610f8f8062001ba683390190565b634e487b7160e01b600052604160045260246000fd5b6040516102c0810167ffffffffffffffff81118282101715620015065762001506620014c9565b60405290565b80356001600160a01b03811681146200152457600080fd5b919050565b8015158114620003bd57600080fd5b8035620015248162001529565b600082601f8301126200155757600080fd5b813567ffffffffffffffff80821115620015755762001575620014c9565b604051601f8301601f19908116603f01168101908282118183101715620015a057620015a0620014c9565b81604052838152866020858801011115620015ba57600080fd5b836020870160208301376000602085830101528094505050505092915050565b600060208284031215620015ed57600080fd5b813567ffffffffffffffff808211156200160657600080fd5b908301906102c082860312156200161c57600080fd5b62001626620014df565b62001631836200150c565b815262001641602084016200150c565b602082015262001654604084016200150c565b604082015262001667606084016200150c565b60608201526200167a6080840162001538565b608082015260a0838101359082015260c0808401359082015260e08084013590820152610100808401359082015261012080840135908201526101408084013590820152610160808401359082015261018080840135908201526101a080840135908201526101c080840135908201526101e08084013590820152610200808401359082015261022080840135908201526102408084013590820152610260808401359082015261028080840135838111156200173657600080fd5b620017448882870162001545565b8284015250506102a080840135838111156200175f57600080fd5b6200176d8882870162001545565b918301919091525095945050505050565b634e487b7160e01b600052601160045260246000fd5b8082028115828204841417620017ae57620017ae6200177e565b92915050565b600082620017d257634e487b7160e01b600052601260045260246000fd5b500490565b81810381811115620017ae57620017ae6200177e565b6000602082840312156200180057600080fd5b81516200180d8162001529565b9392505050565b80820180821115620017ae57620017ae6200177e565b634e487b7160e01b600052603260045260246000fd5b6000815180845260005b8181101562001868576020818501810151868301820152016200184a565b506000602082860101526020601f19601f83011685010191505092915050565b80516001600160a01b0316825260006102c06020830151620018b560208601826001600160a01b03169052565b506040830151620018d160408601826001600160a01b03169052565b506060830151620018ed60608601826001600160a01b03169052565b50608083015162001902608086018215159052565b5060a0838101519085015260c0808401519085015260e08084015190850152610100808401519085015261012080840151908501526101408084015190850152610160808401519085015261018080840151908501526101a080840151908501526101c080840151908501526101e08084015190850152610200808401519085015261022080840151908501526102408084015190850152610260808401519085015261028080840151818601839052620019c08387018262001840565b925050506102a08084015185830382870152620019de838262001840565b9695505050505050565b60006040808301604084528086518083526060925060608601915060608160051b8701016020808a0160005b8481101562001abe57898403605f19018652815180516001600160a01b0316855283810151888601906003811062001a5c57634e487b7160e01b600052602160045260246000fd5b868601529089015189860189905280519182905284019060009060808701905b8083101562001aa85783516001600160e01b031916825292860192600192909201919086019062001a7c565b5097850197955050509082019060010162001a14565b50508782039088015262001ad3818962001888565b9998505050505050505050565b6020815262001afb6020820183516001600160a01b03169052565b6000602083015162001b1860408401826001600160a01b03169052565b5060408301518015156060840152506060830151801515608084015250608083015160a083015260a08301516101208060c085015262001b5d61014085018362001840565b915060c0850151601f198584030160e086015262001b7c838262001840565b60e087015161010087810191909152909601516001600160a01b0316919094015250919291505056fe608060405234801561001057600080fd5b50604051610f8f380380610f8f83398101604081905261002f91610ad0565b80516001600160a01b031661004357600080fd5b6040805160008082526020820190925261005e9184916103e3565b80516100699061057f565b7f699d9daa71b280d05a152715774afa0a81a312594b2d731d6b0b2552b7d6f69f8054600160ff1991821681179092557f65d510a5d8f7ef134ec444f7f34ee808c8eeb5177cdfd16be0c40fe1ab43369580548216831790557f5622121b47b8cd0120c4efe45dd5483242f54a3d49bd7679be565d47694918c380548216831790557f70e699e155a5f76c229c88a52614e4bfee4370d1adc9e274e24a68bd8444e5cd8054821690921790915560178054336001600160a01b031991821617909155600b8054831690556306fdde0360e01b6000908152600080516020610f6f83398151915260208181527fb50e9547bcc8bcab18569462620f0d59a4acc6a75595277950eebc52116a02bf54601b805460609290921c91861691909117905560408601516019805486166001600160a01b0392831617905560a0870151600c5561014087015160218190556022556101608701516023556101c087015160345561018087015160248190556025556101a087015160265560e0870151601e55610100870151601f556101208701518255601d9390935560288054601296169590951790945560808501516032805460ff60b81b1916600160b81b9215159290920291909117905592840151601680549093169116179055610280820151602a906102549082610cfc565b506102a0820151602b906102689082610cfc565b5060c082015161028090670de0b6b3a7640000610dd1565b60295561026082015161029b90670de0b6b3a7640000610dd1565b602d556102408201516102b690670de0b6b3a7640000610dd1565b602e556032805460ff60b01b1916600160b01b1790556101e08201516029546064916102e191610dd1565b6102eb9190610dee565b602f5561020082015160295460649161030391610dd1565b61030d9190610dee565b6030556101e0820151606414801561032a57508161020001516064145b1561033d576032805460ff60b01b191690555b7f3e470cf1ec3767d0209f5128c840997ff9b70dfe0da263b3f94eb114a05d9327826101e00151836102000151604051610381929190918252602082015260400190565b60405180910390a160295430600081815260146020908152604080832085905551938452919290917fddf252ad1be2c89b69c2b068fc378daa952ba7f163c4a11628f55a4df523b3ef910160405180910390a3506102200151602c5550610e88565b7fc8fcad8db84d3cc18b4c41d551ea0ee66dd599cde068d998e57d5e09332c131e54600080516020610f6f8339815191529061ffff8116908190600090600716156104405750600381901c60009081526001840160205260409020545b60005b87518110156104c3576104b683838a848151811061046357610463610e10565b6020026020010151600001518b858151811061048157610481610e10565b6020026020010151602001518c868151811061049f5761049f610e10565b60200260200101516040015161060260201b60201c565b9093509150600101610443565b508282146104df5760028401805461ffff191661ffff84161790555b600782161561050157600382901c600090815260018501602052604090208190555b6001600160a01b038616156105425760405162461bcd60e51b81526020600482015260026024820152616c3160f01b60448201526064015b60405180910390fd5b8451156105765760405162461bcd60e51b8152602060048201526002602482015261361960f11b6044820152606401610539565b50505050505050565b7fc8fcad8db84d3cc18b4c41d551ea0ee66dd599cde068d998e57d5e09332c132080546001600160a01b031981166001600160a01b03848116918217909355604051600080516020610f6f833981519152939092169182907f8be0079c531659141344cd1fd0a4f28419497f9722a3daafe3b4186f6b6457e090600090a3505050565b60008080600080516020610f6f8339815191529050600084511161064d5760405162461bcd60e51b81526020600482015260026024820152616c3360f01b6044820152606401610539565b600085600281111561066157610661610e26565b036107965761069086604051806040016040528060028152602001611b0d60f21b8152506107cf60201b60201c565b60005b84518110156107905760008582815181106106b0576106b0610e10565b6020908102919091018101516001600160e01b03198116600090815291859052604090912054909150606081901c156107105760405162461bcd60e51b81526020600482015260026024820152616c3560f01b6044820152606401610539565b6001600160e01b031980831660008181526020879052604090206001600160601b031960608d901b168e17905560e060058e901b811692831c199c909c1690821c179a8190036107745760038c901c600090815260018601602052604081209b909b555b8b61077e81610e3c565b9c505060019093019250610693915050565b506107c3565b60405162461bcd60e51b8152602060048201526002602482015261361b60f11b6044820152606401610539565b50959694955050505050565b813b81816107f05760405162461bcd60e51b81526004016105399190610e55565b50505050565b634e487b7160e01b600052604160045260246000fd5b6040516102c081016001600160401b038111828210171561082f5761082f6107f6565b60405290565b604051606081016001600160401b038111828210171561082f5761082f6107f6565b604051601f8201601f191681016001600160401b038111828210171561087f5761087f6107f6565b604052919050565b60006001600160401b038211156108a0576108a06107f6565b5060051b60200190565b80516001600160a01b03811681146108c157600080fd5b919050565b805180151581146108c157600080fd5b60005b838110156108f15781810151838201526020016108d9565b50506000910152565b600082601f83011261090b57600080fd5b81516001600160401b03811115610924576109246107f6565b610937601f8201601f1916602001610857565b81815284602083860101111561094c57600080fd5b61095d8260208301602087016108d6565b949350505050565b60006102c0828403121561097857600080fd5b61098061080c565b905061098b826108aa565b8152610999602083016108aa565b60208201526109aa604083016108aa565b60408201526109bb606083016108aa565b60608201526109cc608083016108c6565b608082015260a0828101519082015260c0808301519082015260e08083015190820152610100808301519082015261012080830151908201526101408083015190820152610160808301519082015261018080830151908201526101a080830151908201526101c080830151908201526101e080830151908201526102008083015190820152610220808301519082015261024080830151908201526102608083015190820152610280808301516001600160401b0380821115610a8f57600080fd5b610a9b868387016108fa565b838501526102a0925082850151915080821115610ab757600080fd5b50610ac4858286016108fa565b82840152505092915050565b60008060408385031215610ae357600080fd5b82516001600160401b0380821115610afa57600080fd5b818501915085601f830112610b0e57600080fd5b81516020610b23610b1e83610887565b610857565b82815260059290921b84018101918181019089841115610b4257600080fd5b8286015b84811015610c4057805186811115610b5d57600080fd5b87016060818d03601f19011215610b7357600080fd5b610b7b610835565b610b868683016108aa565b8152604082015160038110610b9a57600080fd5b81870152606082015188811115610bb057600080fd5b8083019250508c603f830112610bc557600080fd5b85820151610bd5610b1e82610887565b81815260059190911b830160400190878101908f831115610bf557600080fd5b6040850194505b82851015610c2b5784516001600160e01b031981168114610c1c57600080fd5b82529388019390880190610bfc565b60408401525050845250918301918301610b46565b5091880151919650909350505080821115610c5a57600080fd5b50610c6785828601610965565b9150509250929050565b600181811c90821680610c8557607f821691505b602082108103610ca557634e487b7160e01b600052602260045260246000fd5b50919050565b601f821115610cf7576000816000526020600020601f850160051c81016020861015610cd45750805b601f850160051c820191505b81811015610cf357828155600101610ce0565b5050505b505050565b81516001600160401b03811115610d1557610d156107f6565b610d2981610d238454610c71565b84610cab565b602080601f831160018114610d5e5760008415610d465750858301515b600019600386901b1c1916600185901b178555610cf3565b600085815260208120601f198616915b82811015610d8d57888601518255948401946001909101908401610d6e565b5085821015610dab5787850151600019600388901b60f8161c191681555b5050505050600190811b01905550565b634e487b7160e01b600052601160045260246000fd5b8082028115828204841417610de857610de8610dbb565b92915050565b600082610e0b57634e487b7160e01b600052601260045260246000fd5b500490565b634e487b7160e01b600052603260045260246000fd5b634e487b7160e01b600052602160045260246000fd5b600060018201610e4e57610e4e610dbb565b5060010190565b6020815260008251806020840152610e748160408501602087016108d6565b601f01601f19169190910160400192915050565b60d980610e966000396000f3fe608060405236600a57005b600080356001600160e01b03191681527fc8fcad8db84d3cc18b4c41d551ea0ee66dd599cde068d998e57d5e09332c131c6020819052604090912054819060601c8060805760405162461bcd60e51b8152602060048201526002602482015261543160f01b604482015260640160405180910390fd5b3660008037600080366000845af43d6000803e808015609e573d6000f35b3d6000fdfea26469706673582212201b4f390c6be3830740d57b0feba9c80f98b4259e3f8a0c8bd6de38891ee92bef64736f6c63430008170033c8fcad8db84d3cc18b4c41d551ea0ee66dd599cde068d998e57d5e09332c131ca2646970667358221220b7e13930b8eb7993e02fc1a9abd99517c40469a8c151a295c5c8e1b90129476964736f6c63430008170033",
  "linkReferences": {},
  "deployedLinkReferences": {}
}