{
  "_format": "hh-sol-artifact-1",
  "contractName": "OwnershipFacet",
  "sourceName": "contracts/facets/OwnershipFacet.sol",
  "abi": [
    {
      "anonymous": false,
      "inputs": [],
      "name": "LockRetrieved",
      "type": "event"
    },
    {
      "anonymous": false,
      "inputs": [
        {
          "indexed": false,
          "internalType": "uint256",
          "name": "ldays",
          "type": "uint256"
        }
      ],
      "name": "LockUpdated",
      "type": "event"
    },
    {
      "anonymous": false,
      "inputs": [],
      "name": "LpBurnt",
      "type": "event"
    },
    {
      "anonymous": false,
      "inputs": [
        {
          "indexed": true,
          "internalType": "address",
          "name": "previousOwner",
          "type": "address"
        },
        {
          "indexed": true,
          "internalType": "address",
          "name": "newOwner",
          "type": "address"
        }
      ],
      "name": "OwnershipTransferred",
      "type": "event"
    },
    {
      "anonymous": false,
      "inputs": [
        {
          "indexed": false,
          "internalType": "string",
          "name": "telegram",
          "type": "string"
        },
        {
          "indexed": false,
          "internalType": "string",
          "name": "twitter",
          "type": "string"
        },
        {
          "indexed": false,
          "internalType": "string",
          "name": "website",
          "type": "string"
        }
      ],
      "name": "SocialsSet",
      "type": "event"
    },
    {
      "anonymous": false,
      "inputs": [
        {
          "components": [
            {
              "internalType": "address",
              "name": "facetAddress",
              "type": "address"
            },
            {
              "internalType": "enum IDiamondCut.FacetCutAction",
              "name": "action",
              "type": "uint8"
            },
            {
              "internalType": "bytes4[]",
              "name": "functionSelectors",
              "type": "bytes4[]"
            }
          ],
          "indexed": false,
          "internalType": "struct IDiamondCut.FacetCut[]",
          "name": "_diamondCut",
          "type": "tuple[]"
        },
        {
          "components": [
            {
              "internalType": "address",
              "name": "owner",
              "type": "address"
            },
            {
              "internalType": "uint256",
              "name": "withdrawTimeout",
              "type": "uint256"
            }
          ],
          "indexed": false,
          "internalType": "struct IStaking.StakingParams",
          "name": "params",
          "type": "tuple"
        }
      ],
      "name": "StakingArgs",
      "type": "event"
    },
    {
      "anonymous": false,
      "inputs": [
        {
          "indexed": false,
          "internalType": "address",
          "name": "stakingPool",
          "type": "address"
        },
        {
          "indexed": false,
          "internalType": "address",
          "name": "owner",
          "type": "address"
        },
        {
          "indexed": false,
          "internalType": "uint256",
          "name": "share",
          "type": "uint256"
        }
      ],
      "name": "StakingLaunched",
      "type": "event"
    },
    {
      "anonymous": false,
      "inputs": [
        {
          "indexed": false,
          "internalType": "uint256",
          "name": "share",
          "type": "uint256"
        }
      ],
      "name": "StakingShareIncreased",
      "type": "event"
    },
    {
      "anonymous": false,
      "inputs": [
        {
          "indexed": false,
          "internalType": "uint256",
          "name": "amount",
          "type": "uint256"
        }
      ],
      "name": "TaxGiven",
      "type": "event"
    },
    {
      "anonymous": false,
      "inputs": [
        {
          "indexed": false,
          "internalType": "address",
          "name": "from",
          "type": "address"
        },
        {
          "indexed": false,
          "internalType": "uint256",
          "name": "value",
          "type": "uint256"
        }
      ],
      "name": "TokensClaimed",
      "type": "event"
    },
    {
      "anonymous": false,
      "inputs": [
        {
          "indexed": true,
          "internalType": "address",
          "name": "from",
          "type": "address"
        },
        {
          "indexed": true,
          "internalType": "address",
          "name": "to",
          "type": "address"
        },
        {
          "indexed": false,
          "internalType": "uint256",
          "name": "value",
          "type": "uint256"
        }
      ],
      "name": "Transfer",
      "type": "event"
    },
    {
      "inputs": [],
      "name": "burnLP",
      "outputs": [],
      "stateMutability": "nonpayable",
      "type": "function"
    },
    {
      "inputs": [],
      "name": "claimTokens",
      "outputs": [],
      "stateMutability": "nonpayable",
      "type": "function"
    },
    {
      "inputs": [
        {
          "internalType": "uint256",
          "name": "ldays",
          "type": "uint256"
        }
      ],
      "name": "extendLock",
      "outputs": [],
      "stateMutability": "nonpayable",
      "type": "function"
    },
    {
      "inputs": [
        {
          "internalType": "address",
          "name": "user",
          "type": "address"
        }
      ],
      "name": "getClaimAmount",
      "outputs": [
        {
          "internalType": "uint256",
          "name": "",
          "type": "uint256"
        },
        {
          "internalType": "uint256",
          "name": "",
          "type": "uint256"
        },
        {
          "internalType": "uint256",
          "name": "",
          "type": "uint256"
        },
        {
          "internalType": "uint256",
          "name": "",
          "type": "uint256"
        }
      ],
      "stateMutability": "view",
      "type": "function"
    },
    {
      "inputs": [],
      "name": "getLPDetails",
      "outputs": [
        {
          "components": [
            {
              "internalType": "address",
              "name": "pair",
              "type": "address"
            },
            {
              "internalType": "uint256",
              "name": "buycount",
              "type": "uint256"
            },
            {
              "internalType": "uint256",
              "name": "taxBuy",
              "type": "uint256"
            },
            {
              "internalType": "uint256",
              "name": "taxSell",
              "type": "uint256"
            },
            {
              "internalType": "uint256",
              "name": "lockDays",
              "type": "uint256"
            },
            {
              "internalType": "bool",
              "name": "isBurnt",
              "type": "bool"
            },
            {
              "internalType": "uint256",
              "name": "tradingOpened",
              "type": "uint256"
            },
            {
              "internalType": "bool",
              "name": "walletLimited",
              "type": "bool"
            },
            {
              "internalType": "address",
              "name": "stakingContract",
              "type": "address"
            },
            {
              "internalType": "uint256",
              "name": "stakingShare",
              "type": "uint256"
            },
            {
              "internalType": "uint256",
              "name": "maxTx",
              "type": "uint256"
            },
            {
              "internalType": "uint256",
              "name": "maxWallet",
              "type": "uint256"
            },
            {
              "internalType": "address",
              "name": "router",
              "type": "address"
            },
            {
              "internalType": "address",
              "name": "presale",
              "type": "address"
            }
          ],
          "internalType": "struct IOwnership.LPDetails",
          "name": "",
          "type": "tuple"
        }
      ],
      "stateMutability": "view",
      "type": "function"
    },
    {
      "inputs": [
        {
          "internalType": "uint256",
          "name": "share",
          "type": "uint256"
        }
      ],
      "name": "increaseStakingShare",
      "outputs": [],
      "stateMutability": "nonpayable",
      "type": "function"
    },
    {
      "inputs": [
        {
          "internalType": "uint256",
          "name": "stakingShare",
          "type": "uint256"
        },
        {
          "components": [
            {
              "internalType": "address",
              "name": "owner",
              "type": "address"
            },
            {
              "internalType": "uint256",
              "name": "withdrawTimeout",
              "type": "uint256"
            }
          ],
          "internalType": "struct IStaking.StakingParams",
          "name": "params",
          "type": "tuple"
        }
      ],
      "name": "launchStaking",
      "outputs": [],
      "stateMutability": "nonpayable",
      "type": "function"
    },
    {
      "inputs": [],
      "name": "owner",
      "outputs": [
        {
          "internalType": "address",
          "name": "owner_",
          "type": "address"
        }
      ],
      "stateMutability": "view",
      "type": "function"
    },
    {
      "inputs": [],
      "name": "retrieveLock",
      "outputs": [],
      "stateMutability": "nonpayable",
      "type": "function"
    },
    {
      "inputs": [
        {
          "internalType": "string",
          "name": "telegram",
          "type": "string"
        },
        {
          "internalType": "string",
          "name": "twitter",
          "type": "string"
        },
        {
          "internalType": "string",
          "name": "website",
          "type": "string"
        }
      ],
      "name": "setSocials",
      "outputs": [],
      "stateMutability": "nonpayable",
      "type": "function"
    },
    {
      "inputs": [
        {
          "internalType": "address",
          "name": "_newOwner",
          "type": "address"
        }
      ],
      "name": "transferOwnership",
      "outputs": [],
      "stateMutability": "nonpayable",
      "type": "function"
    }
  ],
  "bytecode": "0x608060405234801561001057600080fd5b506127d4806100206000396000f3fe60806040523480156200001157600080fd5b5060043610620000b75760003560e01c806348c54b9d116200007a57806348c54b9d14620001175780635c89dfe114620001215780638da5cb5b1462000143578063af66394d1462000166578063dde070e8146200017d578063f2fde38b14620001b557600080fd5b80630b45260e14620000bc5780630d0da2d414620000c857806320ffb26d14620000df57806344ee3a1c14620000f65780634839c8b3146200010d575b600080fd5b620000c6620001cc565b005b620000c6620000d93660046200182a565b62000435565b620000c6620000f0366004620018bc565b62000481565b620000c662000107366004620018bc565b6200053a565b620000c6620006e3565b620000c6620008f6565b6200012b62000b39565b6040516200013a9190620018d6565b60405180910390f35b6200014d62000c8a565b6040516001600160a01b0390911681526020016200013a565b620000c662000177366004620019bb565b62000c9b565b620001946200018e36600462001a34565b620012b6565b6040805194855260208501939093529183015260608201526080016200013a565b620000c6620001c636600462001a34565b620012d6565b620001d662001460565b603254600160c01b900460ff16158015620001fb5750603254600160c81b900460ff16155b8015620002115750603254600160a01b900460ff165b620002485760405162461bcd60e51b81526020600482015260026024820152616f3160f01b60448201526064015b60405180910390fd5b6032805460ff60c01b1916600160c01b179055600a8054606491906000906200027390849062001a6f565b90915550506040517fc43e780723fe0e2a85c0bd4291955d83cac42c6036fd8bf58b10463d3f9f1ae890600090a16032546040516370a0823160e01b81523060048201526001600160a01b039091169063a9059cbb9061dead9083906370a0823190602401602060405180830381865afa158015620002f6573d6000803e3d6000fd5b505050506040513d601f19601f820116820180604052508101906200031c919062001a8b565b6040516001600160e01b031960e085901b1681526001600160a01b03909216600483015260248201526044016020604051808303816000875af115801562000368573d6000803e3d6000fd5b505050506040513d601f19601f820116820180604052508101906200038e919062001aa5565b620003c15760405162461bcd60e51b8152602060048201526002602482015261379960f11b60448201526064016200023f565b600b5460ff16620004335760175460405163344676d360e21b8152336004820152606460248201526001600160a01b039091169063d119db4c90604401600060405180830381600087803b1580156200041957600080fd5b505af11580156200042e573d6000803e3d6000fd5b505050505b565b6200043f62001460565b7fce8f0dec1027cc062f7de8fc4d175e91d917fa9ad1d94ed3e4ae30b76bf9b038838383604051620004749392919062001b11565b60405180910390a1505050565b6200048b62001460565b601c54158015906200049d5750600081115b620004a757600080fd5b806000601c016000828254620004be919062001a6f565b9091555050601c5460641015620005015760405162461bcd60e51b81526004016200023f906020808252600490820152633798989960e11b604082015260600190565b601c546040519081527fcc5d343fa3728e63489d08b6f42d710f12e9126dec83f9b9a9fa74b7e54d22419060200160405180910390a150565b6200054462001460565b603254600160c81b900460ff16158015620005695750603254600160c01b900460ff16155b80156200057f5750603254600160a01b900460ff165b620005b25760405162461bcd60e51b81526020600482015260026024820152616f3360f01b60448201526064016200023f565b6033544290620005c6906201518062001b5a565b602754620005d5919062001a6f565b101562000600576027546201518090620005f0904262001b74565b620005fc919062001b8a565b6033555b806000603301600082825462000617919062001a6f565b9091555050600a805481906000906200063290839062001a6f565b90915550506033546040519081527fa7b24c66dd3269a292a60b3facdbb8f3e7557d1e19e64d99e0d6ee7250be63ad9060200160405180910390a1600b5460ff16620006e05760175460405163344676d360e21b8152336004820152600a60248201526001600160a01b039091169063d119db4c906044015b600060405180830381600087803b158015620006c657600080fd5b505af1158015620006db573d6000803e3d6000fd5b505050505b50565b620006ed62001460565b603254600160c81b900460ff16158015620007125750603254600160c01b900460ff16155b8015620007285750603254600160a01b900460ff165b6200075b5760405162461bcd60e51b81526020600482015260026024820152611bcd60f21b60448201526064016200023f565b60335442906200076d90603c62001b5a565b6200077a90603c62001b5a565b6200078790601862001b5a565b60275462000796919062001a6f565b1015620004335760328054600160c81b60ff60c81b198216179091556040516370a0823160e01b81523060048201526000916001600160a01b0316906370a0823190602401602060405180830381865afa158015620007f9573d6000803e3d6000fd5b505050506040513d601f19601f820116820180604052508101906200081f919062001a8b565b6040519091507faf0fe1663cb7e005c807c426024d6b7bedd6fea7b9df02852418932d71cd78bd90600090a160325460405163a9059cbb60e01b8152336004820152602481018390526001600160a01b039091169063a9059cbb906044016020604051808303816000875af11580156200089d573d6000803e3d6000fd5b505050506040513d601f19601f82011682018060405250810190620008c3919062001aa5565b620006e05760405162461bcd60e51b81526020600482015260026024820152616f3560f01b60448201526064016200023f565b336000908152600d6020526040902054620009395760405162461bcd60e51b8152602060048201526002602482015261379b60f11b60448201526064016200023f565b603254600160a01b900460ff16620009795760405162461bcd60e51b81526020600482015260026024820152616f3760f01b60448201526064016200023f565b6010546200098b906201518062001b5a565b6027546200099a919062001a6f565b4211620009cf5760405162461bcd60e51b81526020600482015260026024820152610de760f31b60448201526064016200023f565b600080620009dd33620014c3565b5050915091506000821162000a1b5760405162461bcd60e51b81526020600482015260036024820152626f676360e81b60448201526064016200023f565b60115460000362000a3757336000908152600d60205260408120555b336000908152600e60205260408120805483929062000a5890849062001a6f565b9091555050600f805483919060009062000a7490849062001b74565b9091555050306000908152601460205260408120805484929062000a9a90849062001b74565b9091555050336000908152601460205260408120805484929062000ac090849062001a6f565b909155505060408051338152602081018490527f896e034966eaaf1adc54acc0f257056febbd300c9e47182cf761982cf1f5e430910160405180910390a1604051828152339030907fddf252ad1be2c89b69c2b068fc378daa952ba7f163c4a11628f55a4df523b3ef9060200160405180910390a35050565b62000bd4604051806101c0016040528060006001600160a01b03168152602001600081526020016000815260200160008152602001600081526020016000151581526020016000815260200160001515815260200160006001600160a01b0316815260200160008152602001600081526020016000815260200160006001600160a01b0316815260200160006001600160a01b031681525090565b604080516101c0810182526032546001600160a01b03168152601d5460208201526021549181019190915260245460608201526080810162000c1562001644565b815260325460ff600160c01b82048116151560208401526027546040840152600160b01b90910416151560608201526018546001600160a01b039081166080830152601c5460a083015260305460c0830152602f5460e083015260315481166101008301526039541661012090910152919050565b600062000c96620016ae565b905090565b62000ca562001460565b60008211801562000cb7575060648211155b62000ceb5760405162461bcd60e51b81526020600482015260036024820152626f313160e81b60448201526064016200023f565b601c541562000d235760405162461bcd60e51b815260206004820152600360248201526237989960e91b60448201526064016200023f565b6202a30081602001511015801562000d415750620d2f008160200151105b62000d755760405162461bcd60e51b81526020600482015260036024820152626f313360e81b60448201526064016200023f565b601c82905560007fc8fcad8db84d3cc18b4c41d551ea0ee66dd599cde068d998e57d5e09332c131c637a0ed62760e01b60009081526020829052604080822054815160028082526060828101909452949550911c92816020015b6040805160608082018352600080835260208301529181019190915281526020019060019003908162000dcf57505060408051600480825260a08201909252919250600091906020820160808036833701905050905063cdffacc660e01b8160008151811062000e435762000e4362001bad565b6001600160e01b03199092166020928302919091019091015280516314bbdacb60e21b908290600190811062000e7d5762000e7d62001bad565b6001600160e01b03199092166020928302919091019091015280516356fe50af60e11b908290600290811062000eb75762000eb762001bad565b6001600160e01b0319909216602092830291909101909101528051637a0ed62760e01b908290600390811062000ef15762000ef162001bad565b6001600160e01b031990921660209283029190910182015260408051606081019091526001600160a01b038516815290810160008152602001828152508260008151811062000f445762000f4462001bad565b6020908102919091010152604080516009808252610140820190925260009181602001602082028036833701905050905063f2fde38b60e01b8160008151811062000f935762000f9362001bad565b6001600160e01b0319909216602092830291909101909101528051638da5cb5b60e01b908290600190811062000fcd5762000fcd62001bad565b6001600160e01b03199092166020928302919091019091015280516366761b8b60e11b908290600290811062001007576200100762001bad565b6001600160e01b031990921660209283029190910190910152805163534a7e1d60e11b908290600390811062001041576200104162001bad565b6001600160e01b03199092166020928302919091019091015280516305c2fbcf60e31b90829060049081106200107b576200107b62001bad565b6001600160e01b0319909216602092830291909101909101528051634f91440d60e01b9082906005908110620010b557620010b562001bad565b6001600160e01b0319909216602092830291909101909101528051633ccfd60b60e01b9082906006908110620010ef57620010ef62001bad565b6001600160e01b031990921660209283029190910190910152805163372500ab60e01b908290600790811062001129576200112962001bad565b6001600160e01b031990921660209283029190910190910152805163cc3d967b60e01b908290600890811062001163576200116362001bad565b6001600160e01b031990921660209283029190910182015260408051606081019091526019546001600160a01b03168152908101600081526020018281525083600181518110620011b857620011b862001bad565b602090810291909101015233865260405160009084908890620011db9062001771565b620011e892919062001bc3565b604051809103906000f08015801562001205573d6000803e3d6000fd5b50604080516001600160a01b03831681523360208201529081018a90529091507fc718bf738f6d7cb0af735b17552ef9e5f1857d1719d7f882b8780ea2f08b3e7f9060600160405180910390a17f0f68eb5d57e43eb10403cd2bf67724161e9b323797195515ea96c0a0c150c93f84886040516200128592919062001bc3565b60405180910390a1601880546001600160a01b0319166001600160a01b039290921691909117905550505050505050565b600080600080620012c785620014c3565b93509350935093509193509193565b620012e062001460565b6000601281620012ef620016ae565b6001600160a01b0316815260208101919091526040016000908120805460ff19169215159290921790915560138162001327620016ae565b6001600160a01b031681526020810191909152604001600020805460ff19169115159190911790556200135a81620016dc565b6001601260006200136a620016ae565b6001600160a01b0316815260208101919091526040016000908120805460ff191692151592909217909155600190601390620013a5620016ae565b6001600160a01b031681526020810191909152604001600020805460ff1916911515919091179055600b5460ff1615620014025730600090815260026020526040902080546001600160a01b0319166001600160a01b0383161790555b600b5460ff16158015620014175750600a5415155b15620006e057601754600a54604051633674dd5360e01b81523360048201526001600160a01b0384811660248301526044820192909252911690633674dd5390606401620006ab565b7fc8fcad8db84d3cc18b4c41d551ea0ee66dd599cde068d998e57d5e09332c131c600401546001600160a01b03163314620004335760405162461bcd60e51b815260206004820152600260248201526106c360f41b60448201526064016200023f565b6001600160a01b0381166000908152600d60205260408120548190819081908190819015801590620014fe5750603254600160a01b900460ff165b15620016105760105462001516906201518062001b5a565b60275462001525919062001a6f565b4211156200161057601054600090620151809062001544908262001b5a565b60275462001553919062001a6f565b6200155f904262001b74565b6200156b919062001b8a565b60115490915015620015f2576011548111156200158757506011545b6001600160a01b0388166000908152600e6020526040902054620015ac908262001b74565b91508115620015ec576011546001600160a01b0389166000908152600d6020526040902054620015dd908462001b5a565b620015e9919062001b8a565b92505b6200160e565b6001600160a01b0388166000908152600d602052604090205492505b505b6001600160a01b03969096166000908152600d6020908152604080832054600e909252909120549197909550909350915050565b603254600090600160a01b900460ff166200165f5750600090565b602754600090620151809062001676904262001b74565b62001682919062001b8a565b6033549091508111156200169857600091505090565b603354620016a890829062001b74565b91505090565b7fc8fcad8db84d3cc18b4c41d551ea0ee66dd599cde068d998e57d5e09332c1320546001600160a01b031690565b7fc8fcad8db84d3cc18b4c41d551ea0ee66dd599cde068d998e57d5e09332c132080546001600160a01b031981166001600160a01b038481169182179093556040517fc8fcad8db84d3cc18b4c41d551ea0ee66dd599cde068d998e57d5e09332c131c939092169182907f8be0079c531659141344cd1fd0a4f28419497f9722a3daafe3b4186f6b6457e090600090a3505050565b610ad18062001cce83390190565b634e487b7160e01b600052604160045260246000fd5b600082601f830112620017a757600080fd5b813567ffffffffffffffff80821115620017c557620017c56200177f565b604051601f8301601f19908116603f01168101908282118183101715620017f057620017f06200177f565b816040528381528660208588010111156200180a57600080fd5b836020870160208301376000602085830101528094505050505092915050565b6000806000606084860312156200184057600080fd5b833567ffffffffffffffff808211156200185957600080fd5b620018678783880162001795565b945060208601359150808211156200187e57600080fd5b6200188c8783880162001795565b93506040860135915080821115620018a357600080fd5b50620018b28682870162001795565b9150509250925092565b600060208284031215620018cf57600080fd5b5035919050565b81516001600160a01b031681526101c081016020830151602083015260408301516040830152606083015160608301526080830151608083015260a08301516200192460a084018215159052565b5060c083015160c083015260e08301516200194360e084018215159052565b50610100838101516001600160a01b0390811691840191909152610120808501519084015261014080850151908401526101608085015190840152610180808501518216908401526101a09384015116929091019190915290565b80356001600160a01b0381168114620019b657600080fd5b919050565b6000808284036060811215620019d057600080fd5b833592506040601f1982011215620019e757600080fd5b506040516040810181811067ffffffffffffffff8211171562001a0e5762001a0e6200177f565b60405262001a1f602085016200199e565b81526040939093013560208401525092909150565b60006020828403121562001a4757600080fd5b62001a52826200199e565b9392505050565b634e487b7160e01b600052601160045260246000fd5b8082018082111562001a855762001a8562001a59565b92915050565b60006020828403121562001a9e57600080fd5b5051919050565b60006020828403121562001ab857600080fd5b8151801515811462001a5257600080fd5b6000815180845260005b8181101562001af15760208185018101518683018201520162001ad3565b506000602082860101526020601f19601f83011685010191505092915050565b60608152600062001b26606083018662001ac9565b828103602084015262001b3a818662001ac9565b9050828103604084015262001b50818562001ac9565b9695505050505050565b808202811582820484141762001a855762001a8562001a59565b8181038181111562001a855762001a8562001a59565b60008262001ba857634e487b7160e01b600052601260045260246000fd5b500490565b634e487b7160e01b600052603260045260246000fd5b60006060808301606084528086518083526080925060808601915060808160051b8701016020808a0160005b8481101562001c9b57898403607f19018652815180516001600160a01b0316855283810151898601906003811062001c3757634e487b7160e01b600052602160045260246000fd5b868601526040918201519186018a905281519081905290840190600090898701905b8083101562001c855783516001600160e01b031916825292860192600192909201919086019062001c59565b5097850197955050509082019060010162001bef565b505081965062001cc08189018a80516001600160a01b03168252602090810151910152565b505050505050939250505056fe608060405234801561001057600080fd5b50604051610ad1380380610ad183398101604081905261002f91610608565b80516001600160a01b031661004357600080fd5b6040805160008082526020820190925261005e9184916100f2565b80516100699061028e565b6348e2b09360e01b60009081527fc8fcad8db84d3cc18b4c41d551ea0ee66dd599cde068d998e57d5e09332c131f60209081527f65d510a5d8f7ef134ec444f7f34ee808c8eeb5177cdfd16be0c40fe1ab433695805460ff19166001908117909155670de0b6b3a7640000905581546001600160a01b0319163317909155015160035550610838565b7fc8fcad8db84d3cc18b4c41d551ea0ee66dd599cde068d998e57d5e09332c131e54600080516020610ab18339815191529061ffff81169081906000906007161561014f5750600381901c60009081526001840160205260409020545b60005b87518110156101d2576101c583838a848151811061017257610172610796565b6020026020010151600001518b858151811061019057610190610796565b6020026020010151602001518c86815181106101ae576101ae610796565b60200260200101516040015161031160201b60201c565b9093509150600101610152565b508282146101ee5760028401805461ffff191661ffff84161790555b600782161561021057600382901c600090815260018501602052604090208190555b6001600160a01b038616156102515760405162461bcd60e51b81526020600482015260026024820152616c3160f01b60448201526064015b60405180910390fd5b8451156102855760405162461bcd60e51b8152602060048201526002602482015261361960f11b6044820152606401610248565b50505050505050565b7fc8fcad8db84d3cc18b4c41d551ea0ee66dd599cde068d998e57d5e09332c132080546001600160a01b031981166001600160a01b03848116918217909355604051600080516020610ab1833981519152939092169182907f8be0079c531659141344cd1fd0a4f28419497f9722a3daafe3b4186f6b6457e090600090a3505050565b60008080600080516020610ab18339815191529050600084511161035c5760405162461bcd60e51b81526020600482015260026024820152616c3360f01b6044820152606401610248565b6000856002811115610370576103706107ac565b036104a55761039f86604051806040016040528060028152602001611b0d60f21b8152506104de60201b60201c565b60005b845181101561049f5760008582815181106103bf576103bf610796565b6020908102919091018101516001600160e01b03198116600090815291859052604090912054909150606081901c1561041f5760405162461bcd60e51b81526020600482015260026024820152616c3560f01b6044820152606401610248565b6001600160e01b031980831660008181526020879052604090206001600160601b031960608d901b168e17905560e060058e901b811692831c199c909c1690821c179a8190036104835760038c901c600090815260018601602052604081209b909b555b8b61048d816107c2565b9c5050600190930192506103a2915050565b506104d2565b60405162461bcd60e51b8152602060048201526002602482015261361b60f11b6044820152606401610248565b50959694955050505050565b813b81816104ff5760405162461bcd60e51b815260040161024891906107e9565b50505050565b634e487b7160e01b600052604160045260246000fd5b604051606081016001600160401b038111828210171561053d5761053d610505565b60405290565b604051601f8201601f191681016001600160401b038111828210171561056b5761056b610505565b604052919050565b60006001600160401b0382111561058c5761058c610505565b5060051b60200190565b80516001600160a01b03811681146105ad57600080fd5b919050565b6000604082840312156105c457600080fd5b604080519081016001600160401b03811182821017156105e6576105e6610505565b6040529050806105f583610596565b8152602083015160208201525092915050565b6000806060838503121561061b57600080fd5b82516001600160401b038082111561063257600080fd5b818501915085601f83011261064657600080fd5b8151602061065b61065683610573565b610543565b82815260059290921b8401810191818101908984111561067a57600080fd5b8286015b848110156107785780518681111561069557600080fd5b87016060818d03601f190112156106ab57600080fd5b6106b361051b565b6106be868301610596565b81526040820151600381106106d257600080fd5b818701526060820151888111156106e857600080fd5b8083019250508c603f8301126106fd57600080fd5b8582015161070d61065682610573565b81815260059190911b830160400190878101908f83111561072d57600080fd5b6040850194505b828510156107635784516001600160e01b03198116811461075457600080fd5b82529388019390880190610734565b6040840152505084525091830191830161067e565b5096506107899050888883016105b2565b9450505050509250929050565b634e487b7160e01b600052603260045260246000fd5b634e487b7160e01b600052602160045260246000fd5b6000600182016107e257634e487b7160e01b600052601160045260246000fd5b5060010190565b60006020808352835180602085015260005b81811015610817578581018301518582016040015282016107fb565b506000604082860101526040601f19601f8301168501019250505092915050565b61026a806108476000396000f3fe6080604052366101345734806100425760405162461bcd60e51b815260206004820152600360248201526239b21960e91b60448201526064015b60405180910390fd5b33600090815260076020526040812080548392906100619084906101e2565b90915550506006805482919060009061007b9084906101e2565b90915550506002546000036100aa57806000600401600082825461009f91906101e2565b909155506100ee9050565b6002546001546004546100bd90846101e2565b6100c791906101fb565b6100d19190610212565b600580546000906100e39084906101e2565b909155505060006004555b60055460405133917f731185b941ee4773f1c8f1cf0c22be2c6b4eaeb0075fbb4c524ac1f80ad391f39161012a91858252602082015260400190565b60405180910390a2005b600080356001600160e01b03191681527fc8fcad8db84d3cc18b4c41d551ea0ee66dd599cde068d998e57d5e09332c131c6020819052604090912054819060601c806101a85760405162461bcd60e51b815260206004820152600360248201526273643160e81b6044820152606401610039565b3660008037600080366000845af43d6000803e8080156101c7573d6000f35b3d6000fd5b634e487b7160e01b600052601160045260246000fd5b808201808211156101f5576101f56101cc565b92915050565b80820281158282048414176101f5576101f56101cc565b60008261022f57634e487b7160e01b600052601260045260246000fd5b50049056fea26469706673582212207facf267715ec11a5c5b000e953f60bf12e4fe00e7c6b2dbf6e8b149e543ec7864736f6c63430008170033c8fcad8db84d3cc18b4c41d551ea0ee66dd599cde068d998e57d5e09332c131ca2646970667358221220083411198eacd3daa3b8f09249a0e7af210a3968663031701e015b4aa84fd63f64736f6c63430008170033",
  "linkReferences": {},
  "deployedLinkReferences": {}
}